{
  "_format": "hh-sol-artifact-1",
  "contractName": "SimpleDocumentNFT",
  "sourceName": "contracts/Lock.sol",
  "abi": [
    {
      "inputs": [],
      "stateMutability": "nonpayable",
      "type": "constructor"
    },
    {
      "inputs": [
        {
          "internalType": "address",
          "name": "sender",
          "type": "address"
        },
        {
          "internalType": "uint256",
          "name": "tokenId",
          "type": "uint256"
        },
        {
          "internalType": "address",
          "name": "owner",
          "type": "address"
        }
      ],
      "name": "ERC721IncorrectOwner",
      "type": "error"
    },
    {
      "inputs": [
        {
          "internalType": "address",
          "name": "operator",
          "type": "address"
        },
        {
          "internalType": "uint256",
          "name": "tokenId",
          "type": "uint256"
        }
      ],
      "name": "ERC721InsufficientApproval",
      "type": "error"
    },
    {
      "inputs": [
        {
          "internalType": "address",
          "name": "approver",
          "type": "address"
        }
      ],
      "name": "ERC721InvalidApprover",
      "type": "error"
    },
    {
      "inputs": [
        {
          "internalType": "address",
          "name": "operator",
          "type": "address"
        }
      ],
      "name": "ERC721InvalidOperator",
      "type": "error"
    },
    {
      "inputs": [
        {
          "internalType": "address",
          "name": "owner",
          "type": "address"
        }
      ],
      "name": "ERC721InvalidOwner",
      "type": "error"
    },
    {
      "inputs": [
        {
          "internalType": "address",
          "name": "receiver",
          "type": "address"
        }
      ],
      "name": "ERC721InvalidReceiver",
      "type": "error"
    },
    {
      "inputs": [
        {
          "internalType": "address",
          "name": "sender",
          "type": "address"
        }
      ],
      "name": "ERC721InvalidSender",
      "type": "error"
    },
    {
      "inputs": [
        {
          "internalType": "uint256",
          "name": "tokenId",
          "type": "uint256"
        }
      ],
      "name": "ERC721NonexistentToken",
      "type": "error"
    },
    {
      "inputs": [
        {
          "internalType": "address",
          "name": "owner",
          "type": "address"
        }
      ],
      "name": "OwnableInvalidOwner",
      "type": "error"
    },
    {
      "inputs": [
        {
          "internalType": "address",
          "name": "account",
          "type": "address"
        }
      ],
      "name": "OwnableUnauthorizedAccount",
      "type": "error"
    },
    {
      "anonymous": false,
      "inputs": [
        {
          "indexed": true,
          "internalType": "address",
          "name": "owner",
          "type": "address"
        },
        {
          "indexed": true,
          "internalType": "address",
          "name": "approved",
          "type": "address"
        },
        {
          "indexed": true,
          "internalType": "uint256",
          "name": "tokenId",
          "type": "uint256"
        }
      ],
      "name": "Approval",
      "type": "event"
    },
    {
      "anonymous": false,
      "inputs": [
        {
          "indexed": true,
          "internalType": "address",
          "name": "owner",
          "type": "address"
        },
        {
          "indexed": true,
          "internalType": "address",
          "name": "operator",
          "type": "address"
        },
        {
          "indexed": false,
          "internalType": "bool",
          "name": "approved",
          "type": "bool"
        }
      ],
      "name": "ApprovalForAll",
      "type": "event"
    },
    {
      "anonymous": false,
      "inputs": [
        {
          "indexed": false,
          "internalType": "uint256",
          "name": "_fromTokenId",
          "type": "uint256"
        },
        {
          "indexed": false,
          "internalType": "uint256",
          "name": "_toTokenId",
          "type": "uint256"
        }
      ],
      "name": "BatchMetadataUpdate",
      "type": "event"
    },
    {
      "anonymous": false,
      "inputs": [
        {
          "indexed": true,
          "internalType": "uint256",
          "name": "tokenId",
          "type": "uint256"
        },
        {
          "indexed": false,
          "internalType": "string",
          "name": "tokenURI",
          "type": "string"
        }
      ],
      "name": "DocumentMinted",
      "type": "event"
    },
    {
      "anonymous": false,
      "inputs": [
        {
          "indexed": false,
          "internalType": "uint256",
          "name": "_tokenId",
          "type": "uint256"
        }
      ],
      "name": "MetadataUpdate",
      "type": "event"
    },
    {
      "anonymous": false,
      "inputs": [
        {
          "indexed": true,
          "internalType": "address",
          "name": "previousOwner",
          "type": "address"
        },
        {
          "indexed": true,
          "internalType": "address",
          "name": "newOwner",
          "type": "address"
        }
      ],
      "name": "OwnershipTransferred",
      "type": "event"
    },
    {
      "anonymous": false,
      "inputs": [
        {
          "indexed": true,
          "internalType": "address",
          "name": "from",
          "type": "address"
        },
        {
          "indexed": true,
          "internalType": "address",
          "name": "to",
          "type": "address"
        },
        {
          "indexed": true,
          "internalType": "uint256",
          "name": "tokenId",
          "type": "uint256"
        }
      ],
      "name": "Transfer",
      "type": "event"
    },
    {
      "inputs": [
        {
          "internalType": "address",
          "name": "to",
          "type": "address"
        },
        {
          "internalType": "uint256",
          "name": "tokenId",
          "type": "uint256"
        }
      ],
      "name": "approve",
      "outputs": [],
      "stateMutability": "nonpayable",
      "type": "function"
    },
    {
      "inputs": [
        {
          "internalType": "address",
          "name": "owner",
          "type": "address"
        }
      ],
      "name": "balanceOf",
      "outputs": [
        {
          "internalType": "uint256",
          "name": "",
          "type": "uint256"
        }
      ],
      "stateMutability": "view",
      "type": "function"
    },
    {
      "inputs": [
        {
          "internalType": "uint256",
          "name": "tokenId",
          "type": "uint256"
        }
      ],
      "name": "getApproved",
      "outputs": [
        {
          "internalType": "address",
          "name": "",
          "type": "address"
        }
      ],
      "stateMutability": "view",
      "type": "function"
    },
    {
      "inputs": [
        {
          "internalType": "address",
          "name": "owner",
          "type": "address"
        },
        {
          "internalType": "address",
          "name": "operator",
          "type": "address"
        }
      ],
      "name": "isApprovedForAll",
      "outputs": [
        {
          "internalType": "bool",
          "name": "",
          "type": "bool"
        }
      ],
      "stateMutability": "view",
      "type": "function"
    },
    {
      "inputs": [
        {
          "internalType": "string",
          "name": "tokenURI",
          "type": "string"
        }
      ],
      "name": "mintDocument",
      "outputs": [
        {
          "internalType": "uint256",
          "name": "",
          "type": "uint256"
        }
      ],
      "stateMutability": "nonpayable",
      "type": "function"
    },
    {
      "inputs": [],
      "name": "name",
      "outputs": [
        {
          "internalType": "string",
          "name": "",
          "type": "string"
        }
      ],
      "stateMutability": "view",
      "type": "function"
    },
    {
      "inputs": [],
      "name": "owner",
      "outputs": [
        {
          "internalType": "address",
          "name": "",
          "type": "address"
        }
      ],
      "stateMutability": "view",
      "type": "function"
    },
    {
      "inputs": [
        {
          "internalType": "uint256",
          "name": "tokenId",
          "type": "uint256"
        }
      ],
      "name": "ownerOf",
      "outputs": [
        {
          "internalType": "address",
          "name": "",
          "type": "address"
        }
      ],
      "stateMutability": "view",
      "type": "function"
    },
    {
      "inputs": [],
      "name": "renounceOwnership",
      "outputs": [],
      "stateMutability": "nonpayable",
      "type": "function"
    },
    {
      "inputs": [
        {
          "internalType": "address",
          "name": "from",
          "type": "address"
        },
        {
          "internalType": "address",
          "name": "to",
          "type": "address"
        },
        {
          "internalType": "uint256",
          "name": "tokenId",
          "type": "uint256"
        }
      ],
      "name": "safeTransferFrom",
      "outputs": [],
      "stateMutability": "nonpayable",
      "type": "function"
    },
    {
      "inputs": [
        {
          "internalType": "address",
          "name": "from",
          "type": "address"
        },
        {
          "internalType": "address",
          "name": "to",
          "type": "address"
        },
        {
          "internalType": "uint256",
          "name": "tokenId",
          "type": "uint256"
        },
        {
          "internalType": "bytes",
          "name": "data",
          "type": "bytes"
        }
      ],
      "name": "safeTransferFrom",
      "outputs": [],
      "stateMutability": "nonpayable",
      "type": "function"
    },
    {
      "inputs": [
        {
          "internalType": "address",
          "name": "operator",
          "type": "address"
        },
        {
          "internalType": "bool",
          "name": "approved",
          "type": "bool"
        }
      ],
      "name": "setApprovalForAll",
      "outputs": [],
      "stateMutability": "nonpayable",
      "type": "function"
    },
    {
      "inputs": [
        {
          "internalType": "bytes4",
          "name": "interfaceId",
          "type": "bytes4"
        }
      ],
      "name": "supportsInterface",
      "outputs": [
        {
          "internalType": "bool",
          "name": "",
          "type": "bool"
        }
      ],
      "stateMutability": "view",
      "type": "function"
    },
    {
      "inputs": [],
      "name": "symbol",
      "outputs": [
        {
          "internalType": "string",
          "name": "",
          "type": "string"
        }
      ],
      "stateMutability": "view",
      "type": "function"
    },
    {
      "inputs": [
        {
          "internalType": "uint256",
          "name": "tokenId",
          "type": "uint256"
        }
      ],
      "name": "tokenURI",
      "outputs": [
        {
          "internalType": "string",
          "name": "",
          "type": "string"
        }
      ],
      "stateMutability": "view",
      "type": "function"
    },
    {
      "inputs": [
        {
          "internalType": "address",
          "name": "from",
          "type": "address"
        },
        {
          "internalType": "address",
          "name": "to",
          "type": "address"
        },
        {
          "internalType": "uint256",
          "name": "tokenId",
          "type": "uint256"
        }
      ],
      "name": "transferFrom",
      "outputs": [],
      "stateMutability": "nonpayable",
      "type": "function"
    },
    {
      "inputs": [
        {
          "internalType": "address",
          "name": "newOwner",
          "type": "address"
        }
      ],
      "name": "transferOwnership",
      "outputs": [],
      "stateMutability": "nonpayable",
      "type": "function"
    }
  ],
  "bytecode": "0x60806040523480156200001157600080fd5b50336040518060400160405280600b81526020017f446f63756d656e744e46540000000000000000000000000000000000000000008152506040518060400160405280600481526020017f444e465400000000000000000000000000000000000000000000000000000000815250816000908162000090919062000472565b508060019081620000a2919062000472565b505050600073ffffffffffffffffffffffffffffffffffffffff168173ffffffffffffffffffffffffffffffffffffffff16036200011a5760006040517f1e4fbdf70000000000000000000000000000000000000000000000000000000081526004016200011191906200059e565b60405180910390fd5b6200012b816200013260201b60201c565b50620005bb565b6000600760009054906101000a900473ffffffffffffffffffffffffffffffffffffffff16905081600760006101000a81548173ffffffffffffffffffffffffffffffffffffffff021916908373ffffffffffffffffffffffffffffffffffffffff1602179055508173ffffffffffffffffffffffffffffffffffffffff168173ffffffffffffffffffffffffffffffffffffffff167f8be0079c531659141344cd1fd0a4f28419497f9722a3daafe3b4186f6b6457e060405160405180910390a35050565b600081519050919050565b7f4e487b7100000000000000000000000000000000000000000000000000000000600052604160045260246000fd5b7f4e487b7100000000000000000000000000000000000000000000000000000000600052602260045260246000fd5b600060028204905060018216806200027a57607f821691505b60208210810362000290576200028f62000232565b5b50919050565b60008190508160005260206000209050919050565b60006020601f8301049050919050565b600082821b905092915050565b600060088302620002fa7fffffffffffffffffffffffffffffffffffffffffffffffffffffffffffffffff82620002bb565b620003068683620002bb565b95508019841693508086168417925050509392505050565b6000819050919050565b6000819050919050565b6000620003536200034d62000347846200031e565b62000328565b6200031e565b9050919050565b6000819050919050565b6200036f8362000332565b620003876200037e826200035a565b848454620002c8565b825550505050565b600090565b6200039e6200038f565b620003ab81848462000364565b505050565b5b81811015620003d357620003c760008262000394565b600181019050620003b1565b5050565b601f8211156200042257620003ec8162000296565b620003f784620002ab565b8101602085101562000407578190505b6200041f6200041685620002ab565b830182620003b0565b50505b505050565b600082821c905092915050565b6000620004476000198460080262000427565b1980831691505092915050565b600062000462838362000434565b9150826002028217905092915050565b6200047d82620001f8565b67ffffffffffffffff81111562000499576200049862000203565b5b620004a5825462000261565b620004b2828285620003d7565b600060209050601f831160018114620004ea5760008415620004d5578287015190505b620004e1858262000454565b86555062000551565b601f198416620004fa8662000296565b60005b828110156200052457848901518255600182019150602085019450602081019050620004fd565b8683101562000544578489015162000540601f89168262000434565b8355505b6001600288020188555050505b505050505050565b600073ffffffffffffffffffffffffffffffffffffffff82169050919050565b6000620005868262000559565b9050919050565b620005988162000579565b82525050565b6000602082019050620005b560008301846200058d565b92915050565b61265880620005cb6000396000f3fe608060405234801561001057600080fd5b506004361061010b5760003560e01c8063715018a6116100a2578063b88d4fde11610071578063b88d4fde146102a4578063c87b56dd146102c0578063ceb9ba57146102f0578063e985e9c514610320578063f2fde38b146103505761010b565b8063715018a6146102425780638da5cb5b1461024c57806395d89b411461026a578063a22cb465146102885761010b565b806323b872dd116100de57806323b872dd146101aa57806342842e0e146101c65780636352211e146101e257806370a08231146102125761010b565b806301ffc9a71461011057806306fdde0314610140578063081812fc1461015e578063095ea7b31461018e575b600080fd5b61012a60048036038101906101259190611ac3565b61036c565b6040516101379190611b0b565b60405180910390f35b6101486103cd565b6040516101559190611bb6565b60405180910390f35b61017860048036038101906101739190611c0e565b61045f565b6040516101859190611c7c565b60405180910390f35b6101a860048036038101906101a39190611cc3565b61047b565b005b6101c460048036038101906101bf9190611d03565b610491565b005b6101e060048036038101906101db9190611d03565b610593565b005b6101fc60048036038101906101f79190611c0e565b6105b3565b6040516102099190611c7c565b60405180910390f35b61022c60048036038101906102279190611d56565b6105c5565b6040516102399190611d92565b60405180910390f35b61024a61067f565b005b610254610693565b6040516102619190611c7c565b60405180910390f35b6102726106bd565b60405161027f9190611bb6565b60405180910390f35b6102a2600480360381019061029d9190611dd9565b61074f565b005b6102be60048036038101906102b99190611f4e565b610765565b005b6102da60048036038101906102d59190611c0e565b61078a565b6040516102e79190611bb6565b60405180910390f35b61030a60048036038101906103059190612072565b61089d565b6040516103179190611d92565b60405180910390f35b61033a600480360381019061033591906120bb565b61090e565b6040516103479190611b0b565b60405180910390f35b61036a60048036038101906103659190611d56565b6109a2565b005b6000634906490660e01b7bffffffffffffffffffffffffffffffffffffffffffffffffffffffff1916827bffffffffffffffffffffffffffffffffffffffffffffffffffffffff191614806103c657506103c582610a28565b5b9050919050565b6060600080546103dc9061212a565b80601f01602080910402602001604051908101604052809291908181526020018280546104089061212a565b80156104555780601f1061042a57610100808354040283529160200191610455565b820191906000526020600020905b81548152906001019060200180831161043857829003601f168201915b5050505050905090565b600061046a82610b0a565b5061047482610b92565b9050919050565b61048d8282610488610bcf565b610bd7565b5050565b600073ffffffffffffffffffffffffffffffffffffffff168273ffffffffffffffffffffffffffffffffffffffff16036105035760006040517f64a0ae920000000000000000000000000000000000000000000000000000000081526004016104fa9190611c7c565b60405180910390fd5b60006105178383610512610bcf565b610be9565b90508373ffffffffffffffffffffffffffffffffffffffff168173ffffffffffffffffffffffffffffffffffffffff161461058d578382826040517f64283d7b0000000000000000000000000000000000000000000000000000000081526004016105849392919061215b565b60405180910390fd5b50505050565b6105ae83838360405180602001604052806000815250610765565b505050565b60006105be82610b0a565b9050919050565b60008073ffffffffffffffffffffffffffffffffffffffff168273ffffffffffffffffffffffffffffffffffffffff16036106385760006040517f89c62b6400000000000000000000000000000000000000000000000000000000815260040161062f9190611c7c565b60405180910390fd5b600360008373ffffffffffffffffffffffffffffffffffffffff1673ffffffffffffffffffffffffffffffffffffffff168152602001908152602001600020549050919050565b610687610e03565b6106916000610e8a565b565b6000600760009054906101000a900473ffffffffffffffffffffffffffffffffffffffff16905090565b6060600180546106cc9061212a565b80601f01602080910402602001604051908101604052809291908181526020018280546106f89061212a565b80156107455780601f1061071a57610100808354040283529160200191610745565b820191906000526020600020905b81548152906001019060200180831161072857829003601f168201915b5050505050905090565b61076161075a610bcf565b8383610f50565b5050565b610770848484610491565b61078461077b610bcf565b858585856110bf565b50505050565b606061079582610b0a565b5060006006600084815260200190815260200160002080546107b69061212a565b80601f01602080910402602001604051908101604052809291908181526020018280546107e29061212a565b801561082f5780601f106108045761010080835404028352916020019161082f565b820191906000526020600020905b81548152906001019060200180831161081257829003601f168201915b505050505090506000610840611270565b90506000815103610855578192505050610898565b60008251111561088a5780826040516020016108729291906121ce565b60405160208183030381529060405292505050610898565b61089384611287565b925050505b919050565b600080600860008154809291906108b390612221565b9190505590506108c333826112f0565b6108cd81846113e9565b807f2a25e252d13c81e8c2caedfaff9d1ee2a65d299e5ea5a494df86f10fdf51fb6f846040516108fd9190611bb6565b60405180910390a280915050919050565b6000600560008473ffffffffffffffffffffffffffffffffffffffff1673ffffffffffffffffffffffffffffffffffffffff16815260200190815260200160002060008373ffffffffffffffffffffffffffffffffffffffff1673ffffffffffffffffffffffffffffffffffffffff16815260200190815260200160002060009054906101000a900460ff16905092915050565b6109aa610e03565b600073ffffffffffffffffffffffffffffffffffffffff168173ffffffffffffffffffffffffffffffffffffffff1603610a1c5760006040517f1e4fbdf7000000000000000000000000000000000000000000000000000000008152600401610a139190611c7c565b60405180910390fd5b610a2581610e8a565b50565b60007f80ac58cd000000000000000000000000000000000000000000000000000000007bffffffffffffffffffffffffffffffffffffffffffffffffffffffff1916827bffffffffffffffffffffffffffffffffffffffffffffffffffffffff19161480610af357507f5b5e139f000000000000000000000000000000000000000000000000000000007bffffffffffffffffffffffffffffffffffffffffffffffffffffffff1916827bffffffffffffffffffffffffffffffffffffffffffffffffffffffff1916145b80610b035750610b0282611445565b5b9050919050565b600080610b16836114af565b9050600073ffffffffffffffffffffffffffffffffffffffff168173ffffffffffffffffffffffffffffffffffffffff1603610b8957826040517f7e273289000000000000000000000000000000000000000000000000000000008152600401610b809190611d92565b60405180910390fd5b80915050919050565b60006004600083815260200190815260200160002060009054906101000a900473ffffffffffffffffffffffffffffffffffffffff169050919050565b600033905090565b610be483838360016114ec565b505050565b600080610bf5846114af565b9050600073ffffffffffffffffffffffffffffffffffffffff168373ffffffffffffffffffffffffffffffffffffffff1614610c3757610c368184866116b1565b5b600073ffffffffffffffffffffffffffffffffffffffff168173ffffffffffffffffffffffffffffffffffffffff1614610cc857610c796000856000806114ec565b6001600360008373ffffffffffffffffffffffffffffffffffffffff1673ffffffffffffffffffffffffffffffffffffffff168152602001908152602001600020600082825403925050819055505b600073ffffffffffffffffffffffffffffffffffffffff168573ffffffffffffffffffffffffffffffffffffffff1614610d4b576001600360008773ffffffffffffffffffffffffffffffffffffffff1673ffffffffffffffffffffffffffffffffffffffff168152602001908152602001600020600082825401925050819055505b846002600086815260200190815260200160002060006101000a81548173ffffffffffffffffffffffffffffffffffffffff021916908373ffffffffffffffffffffffffffffffffffffffff160217905550838573ffffffffffffffffffffffffffffffffffffffff168273ffffffffffffffffffffffffffffffffffffffff167fddf252ad1be2c89b69c2b068fc378daa952ba7f163c4a11628f55a4df523b3ef60405160405180910390a4809150509392505050565b610e0b610bcf565b73ffffffffffffffffffffffffffffffffffffffff16610e29610693565b73ffffffffffffffffffffffffffffffffffffffff1614610e8857610e4c610bcf565b6040517f118cdaa7000000000000000000000000000000000000000000000000000000008152600401610e7f9190611c7c565b60405180910390fd5b565b6000600760009054906101000a900473ffffffffffffffffffffffffffffffffffffffff16905081600760006101000a81548173ffffffffffffffffffffffffffffffffffffffff021916908373ffffffffffffffffffffffffffffffffffffffff1602179055508173ffffffffffffffffffffffffffffffffffffffff168173ffffffffffffffffffffffffffffffffffffffff167f8be0079c531659141344cd1fd0a4f28419497f9722a3daafe3b4186f6b6457e060405160405180910390a35050565b600073ffffffffffffffffffffffffffffffffffffffff168273ffffffffffffffffffffffffffffffffffffffff1603610fc157816040517f5b08ba18000000000000000000000000000000000000000000000000000000008152600401610fb89190611c7c565b60405180910390fd5b80600560008573ffffffffffffffffffffffffffffffffffffffff1673ffffffffffffffffffffffffffffffffffffffff16815260200190815260200160002060008473ffffffffffffffffffffffffffffffffffffffff1673ffffffffffffffffffffffffffffffffffffffff16815260200190815260200160002060006101000a81548160ff0219169083151502179055508173ffffffffffffffffffffffffffffffffffffffff168373ffffffffffffffffffffffffffffffffffffffff167f17307eab39ab6107e8899845ad3d59bd9653f200f220920489ca2b5937696c31836040516110b29190611b0b565b60405180910390a3505050565b60008373ffffffffffffffffffffffffffffffffffffffff163b1115611269578273ffffffffffffffffffffffffffffffffffffffff1663150b7a02868685856040518563ffffffff1660e01b815260040161111e94939291906122be565b6020604051808303816000875af192505050801561115a57506040513d601f19601f82011682018060405250810190611157919061231f565b60015b6111de573d806000811461118a576040519150601f19603f3d011682016040523d82523d6000602084013e61118f565b606091505b5060008151036111d657836040517f64a0ae920000000000000000000000000000000000000000000000000000000081526004016111cd9190611c7c565b60405180910390fd5b805181602001fd5b63150b7a0260e01b7bffffffffffffffffffffffffffffffffffffffffffffffffffffffff1916817bffffffffffffffffffffffffffffffffffffffffffffffffffffffff19161461126757836040517f64a0ae9200000000000000000000000000000000000000000000000000000000815260040161125e9190611c7c565b60405180910390fd5b505b5050505050565b606060405180602001604052806000815250905090565b606061129282610b0a565b50600061129d611270565b905060008151116112bd57604051806020016040528060008152506112e8565b806112c784611775565b6040516020016112d89291906121ce565b6040516020818303038152906040525b915050919050565b600073ffffffffffffffffffffffffffffffffffffffff168273ffffffffffffffffffffffffffffffffffffffff16036113625760006040517f64a0ae920000000000000000000000000000000000000000000000000000000081526004016113599190611c7c565b60405180910390fd5b600061137083836000610be9565b9050600073ffffffffffffffffffffffffffffffffffffffff168173ffffffffffffffffffffffffffffffffffffffff16146113e45760006040517f73c6ac6e0000000000000000000000000000000000000000000000000000000081526004016113db9190611c7c565b60405180910390fd5b505050565b8060066000848152602001908152602001600020908161140991906124f8565b507ff8e1a15aba9398e019f0b49df1a4fde98ee17ae345cb5f6b5e2c27f5033e8ce7826040516114399190611d92565b60405180910390a15050565b60007f01ffc9a7000000000000000000000000000000000000000000000000000000007bffffffffffffffffffffffffffffffffffffffffffffffffffffffff1916827bffffffffffffffffffffffffffffffffffffffffffffffffffffffff1916149050919050565b60006002600083815260200190815260200160002060009054906101000a900473ffffffffffffffffffffffffffffffffffffffff169050919050565b80806115255750600073ffffffffffffffffffffffffffffffffffffffff168273ffffffffffffffffffffffffffffffffffffffff1614155b1561165957600061153584610b0a565b9050600073ffffffffffffffffffffffffffffffffffffffff168373ffffffffffffffffffffffffffffffffffffffff16141580156115a057508273ffffffffffffffffffffffffffffffffffffffff168173ffffffffffffffffffffffffffffffffffffffff1614155b80156115b357506115b1818461090e565b155b156115f557826040517fa9fbf51f0000000000000000000000000000000000000000000000000000000081526004016115ec9190611c7c565b60405180910390fd5b811561165757838573ffffffffffffffffffffffffffffffffffffffff168273ffffffffffffffffffffffffffffffffffffffff167f8c5be1e5ebec7d5bd14f71427d1e84f3dd0314c0f7b2291e5b200ac8c7c3b92560405160405180910390a45b505b836004600085815260200190815260200160002060006101000a81548173ffffffffffffffffffffffffffffffffffffffff021916908373ffffffffffffffffffffffffffffffffffffffff16021790555050505050565b6116bc838383611843565b61177057600073ffffffffffffffffffffffffffffffffffffffff168373ffffffffffffffffffffffffffffffffffffffff160361173157806040517f7e2732890000000000000000000000000000000000000000000000000000000081526004016117289190611d92565b60405180910390fd5b81816040517f177e802f0000000000000000000000000000000000000000000000000000000081526004016117679291906125ca565b60405180910390fd5b505050565b60606000600161178484611904565b01905060008167ffffffffffffffff8111156117a3576117a2611e23565b5b6040519080825280601f01601f1916602001820160405280156117d55781602001600182028036833780820191505090505b509050600082602001820190505b600115611838578080600190039150507f3031323334353637383961626364656600000000000000000000000000000000600a86061a8153600a858161182c5761182b6125f3565b5b049450600085036117e3575b819350505050919050565b60008073ffffffffffffffffffffffffffffffffffffffff168373ffffffffffffffffffffffffffffffffffffffff16141580156118fb57508273ffffffffffffffffffffffffffffffffffffffff168473ffffffffffffffffffffffffffffffffffffffff1614806118bc57506118bb848461090e565b5b806118fa57508273ffffffffffffffffffffffffffffffffffffffff166118e283610b92565b73ffffffffffffffffffffffffffffffffffffffff16145b5b90509392505050565b600080600090507a184f03e93ff9f4daa797ed6e38ed64bf6a1f0100000000000000008310611962577a184f03e93ff9f4daa797ed6e38ed64bf6a1f0100000000000000008381611958576119576125f3565b5b0492506040810190505b6d04ee2d6d415b85acef8100000000831061199f576d04ee2d6d415b85acef81000000008381611995576119946125f3565b5b0492506020810190505b662386f26fc1000083106119ce57662386f26fc1000083816119c4576119c36125f3565b5b0492506010810190505b6305f5e10083106119f7576305f5e10083816119ed576119ec6125f3565b5b0492506008810190505b6127108310611a1c576127108381611a1257611a116125f3565b5b0492506004810190505b60648310611a3f5760648381611a3557611a346125f3565b5b0492506002810190505b600a8310611a4e576001810190505b80915050919050565b6000604051905090565b600080fd5b600080fd5b60007fffffffff0000000000000000000000000000000000000000000000000000000082169050919050565b611aa081611a6b565b8114611aab57600080fd5b50565b600081359050611abd81611a97565b92915050565b600060208284031215611ad957611ad8611a61565b5b6000611ae784828501611aae565b91505092915050565b60008115159050919050565b611b0581611af0565b82525050565b6000602082019050611b206000830184611afc565b92915050565b600081519050919050565b600082825260208201905092915050565b60005b83811015611b60578082015181840152602081019050611b45565b60008484015250505050565b6000601f19601f8301169050919050565b6000611b8882611b26565b611b928185611b31565b9350611ba2818560208601611b42565b611bab81611b6c565b840191505092915050565b60006020820190508181036000830152611bd08184611b7d565b905092915050565b6000819050919050565b611beb81611bd8565b8114611bf657600080fd5b50565b600081359050611c0881611be2565b92915050565b600060208284031215611c2457611c23611a61565b5b6000611c3284828501611bf9565b91505092915050565b600073ffffffffffffffffffffffffffffffffffffffff82169050919050565b6000611c6682611c3b565b9050919050565b611c7681611c5b565b82525050565b6000602082019050611c916000830184611c6d565b92915050565b611ca081611c5b565b8114611cab57600080fd5b50565b600081359050611cbd81611c97565b92915050565b60008060408385031215611cda57611cd9611a61565b5b6000611ce885828601611cae565b9250506020611cf985828601611bf9565b9150509250929050565b600080600060608486031215611d1c57611d1b611a61565b5b6000611d2a86828701611cae565b9350506020611d3b86828701611cae565b9250506040611d4c86828701611bf9565b9150509250925092565b600060208284031215611d6c57611d6b611a61565b5b6000611d7a84828501611cae565b91505092915050565b611d8c81611bd8565b82525050565b6000602082019050611da76000830184611d83565b92915050565b611db681611af0565b8114611dc157600080fd5b50565b600081359050611dd381611dad565b92915050565b60008060408385031215611df057611def611a61565b5b6000611dfe85828601611cae565b9250506020611e0f85828601611dc4565b9150509250929050565b600080fd5b600080fd5b7f4e487b7100000000000000000000000000000000000000000000000000000000600052604160045260246000fd5b611e5b82611b6c565b810181811067ffffffffffffffff82111715611e7a57611e79611e23565b5b80604052505050565b6000611e8d611a57565b9050611e998282611e52565b919050565b600067ffffffffffffffff821115611eb957611eb8611e23565b5b611ec282611b6c565b9050602081019050919050565b82818337600083830152505050565b6000611ef1611eec84611e9e565b611e83565b905082815260208101848484011115611f0d57611f0c611e1e565b5b611f18848285611ecf565b509392505050565b600082601f830112611f3557611f34611e19565b5b8135611f45848260208601611ede565b91505092915050565b60008060008060808587031215611f6857611f67611a61565b5b6000611f7687828801611cae565b9450506020611f8787828801611cae565b9350506040611f9887828801611bf9565b925050606085013567ffffffffffffffff811115611fb957611fb8611a66565b5b611fc587828801611f20565b91505092959194509250565b600067ffffffffffffffff821115611fec57611feb611e23565b5b611ff582611b6c565b9050602081019050919050565b600061201561201084611fd1565b611e83565b90508281526020810184848401111561203157612030611e1e565b5b61203c848285611ecf565b509392505050565b600082601f83011261205957612058611e19565b5b8135612069848260208601612002565b91505092915050565b60006020828403121561208857612087611a61565b5b600082013567ffffffffffffffff8111156120a6576120a5611a66565b5b6120b284828501612044565b91505092915050565b600080604083850312156120d2576120d1611a61565b5b60006120e085828601611cae565b92505060206120f185828601611cae565b9150509250929050565b7f4e487b7100000000000000000000000000000000000000000000000000000000600052602260045260246000fd5b6000600282049050600182168061214257607f821691505b602082108103612155576121546120fb565b5b50919050565b60006060820190506121706000830186611c6d565b61217d6020830185611d83565b61218a6040830184611c6d565b949350505050565b600081905092915050565b60006121a882611b26565b6121b28185612192565b93506121c2818560208601611b42565b80840191505092915050565b60006121da828561219d565b91506121e6828461219d565b91508190509392505050565b7f4e487b7100000000000000000000000000000000000000000000000000000000600052601160045260246000fd5b600061222c82611bd8565b91507fffffffffffffffffffffffffffffffffffffffffffffffffffffffffffffffff820361225e5761225d6121f2565b5b600182019050919050565b600081519050919050565b600082825260208201905092915050565b600061229082612269565b61229a8185612274565b93506122aa818560208601611b42565b6122b381611b6c565b840191505092915050565b60006080820190506122d36000830187611c6d565b6122e06020830186611c6d565b6122ed6040830185611d83565b81810360608301526122ff8184612285565b905095945050505050565b60008151905061231981611a97565b92915050565b60006020828403121561233557612334611a61565b5b60006123438482850161230a565b91505092915050565b60008190508160005260206000209050919050565b60006020601f8301049050919050565b600082821b905092915050565b6000600883026123ae7fffffffffffffffffffffffffffffffffffffffffffffffffffffffffffffffff82612371565b6123b88683612371565b95508019841693508086168417925050509392505050565b6000819050919050565b60006123f56123f06123eb84611bd8565b6123d0565b611bd8565b9050919050565b6000819050919050565b61240f836123da565b61242361241b826123fc565b84845461237e565b825550505050565b600090565b61243861242b565b612443818484612406565b505050565b5b818110156124675761245c600082612430565b600181019050612449565b5050565b601f8211156124ac5761247d8161234c565b61248684612361565b81016020851015612495578190505b6124a96124a185612361565b830182612448565b50505b505050565b600082821c905092915050565b60006124cf600019846008026124b1565b1980831691505092915050565b60006124e883836124be565b9150826002028217905092915050565b61250182611b26565b67ffffffffffffffff81111561251a57612519611e23565b5b612524825461212a565b61252f82828561246b565b600060209050601f8311600181146125625760008415612550578287015190505b61255a85826124dc565b8655506125c2565b601f1984166125708661234c565b60005b8281101561259857848901518255600182019150602085019450602081019050612573565b868310156125b557848901516125b1601f8916826124be565b8355505b6001600288020188555050505b505050505050565b60006040820190506125df6000830185611c6d565b6125ec6020830184611d83565b9392505050565b7f4e487b7100000000000000000000000000000000000000000000000000000000600052601260045260246000fdfea2646970667358221220a4823b7a2d865fc036a1ac59f6a8689cd3d98e96734394fb2790169af1b29c1164736f6c63430008140033",
  "linkReferences": {},
  "deployedLinkReferences": {}
}